:020000040000FA
:1030000021EF1AF027EF1AF02DEF1AF03CEF1AF02B
:103010003DEF1AF043EF1AF07FEF1AF08EEF1AF03F
:103020006FEF1AF077EF1AF09DEF1AF067EF1AF0D2
:1030300061EF1AF049EF1AF054EF1AF080EF19F02F
:1030400081EF19F082EF19F083EF19F06EEF1AF0AB
:103050006DEF1AF084EF19F085EF19F086EF19F093
:103060001200000012000000120000001200000018
:103070001200000012000000120000001200000008
:10308000FFFFFFFFFFFFFFFFFFFFFFFFFFFFFFFF50
:10309000FFFFFFFFFFFFFFFFFFFFFFFFFFFFFFFF40
:103300001200120012001200120012001200D9CF97
:10331000EDFFE9CFD9FF10C0EDFF0001872B0001C1
:10332000882B106A00018451010A01E1102A105013
:1033300004E0010E0001885D08E200018551010AE8
:103340000BE1010E0001885D07E30001886B040EAC
:103350000001826F836B8086105004E0030E000131
:10336000875D0AE200018551010A01E055D0030E94
:103370000001875DD8A050D00001876B0001892B28
:10338000080E895D04E3896B00018A2B8082040E9C
:1033900000018A5D04E38A6B00018B2B8080020EA2
:1033A0000001895D02E380908092000E88EC16F0A7
:1033B000000EED6E360EED6E620EBBEC1BF0020ED3
:1033C000E92600018929106E10508EEC16F0000ECF
:1033D000ED6E360EED6E640EBBEC1BF0020EE926B0
:1033E00000018A29106E10508EEC16F0000EED6E62
:1033F000360EED6E640EBBEC1BF0020EE9260001EA
:103400008B5190EC16F0000EED6E360EED6E680EE0
:10341000BBEC1BF0020EE9260001845107E1010E0E
:10342000846F80808084FA0E24EC16F0640E000114
:10343000806F816B1AEC1BF0ECCF10F0ECCFD9FF52
:10344000120003EE7FF023EE7FF088EF1BF003EE17
:103450007FF023EE7FF0C3EF1CF023EE3FF0E9CFC7
:10346000DDFFEACFDDFF03EE3DF0A7EC1AF03FC32E
:10347000E9FF3EC3EAFF1200120003EE7FF023EEE5
:103480007FF0A6EF1BF003EE7FF023EE7FF0BCEFA2
:103490001CF003EE7FF023EE7FF005C0EDFF04C0CB
:1034A000EDFF0350B5EF1CF003EE7FF023EE7FF04D
:1034B00005C0EDFF04C0EDFF03C0EDFFED6EAEEF04
:1034C0001CF003EE7FF023EE7FF0A7EF1CF003EE7D
:1034D0007FF023EE7FF0E6EF1AF01200120003EE09
:1034E0007FF023EE7FF004C0EDFF92EF1CF003EEBF
:1034F0007FF023EE7FF004C0EDFF8BEF1CF023EE96
:103500003FF0E9CFDDFFEACFDDFF03EE3DF0A0ECB9
:103510001CF03FC3E9FF3EC3EAFF120023EE3FF079
:10352000E9CFDDFFEACFDDFF03EE3DF099EC1CF0C3
:103530003FC3E9FF3EC3EAFF120003EE7FF023EE34
:103540007FF005C0EDFF04C0EDFF84EF1CF0D9CF84
:10355000EDFFE9CFD9FF10C0EDFF106A82B4102A49
:1035600010500001861905E01050010A02E187ECB5
:1035700019F010C086F00001845123E0000E000114
:10358000835D02E1020E825D07E3FF0E00018227E8
:1035900001E28307808601D08096000E0001815DE4
:1035A00002E1020E805D06E3FF0E0001802701E2CA
:1035B000810707D00001846BFC0E24EC16F069EC47
:1035C0001BF0ECCF10F0ECCFD9FF1200D9CFEDFFFC
:1035D000E9CFD9FF10C0EDFF106E1050F80A1FE0C0
:1035E0001050FA0A07E01050FB0A04E01050FC0AE1
:1035F00005E01BD0010E0001856F17D0000E88EC8E
:1036000016F0000EED6E360EED6E860EBBEC1BF066
:10361000020EE9260001856B69EC1BF006D0000163
:103620008551010A02E187EC19F0ECCF10F0ECCFE4
:10363000D9FF1200D9CFEDFFE9CFD9FF8388839856
:1036400083888398838883988388839883888398E2
:10365000838883988388839883888398ECCFD9FF65
:1036600012005B005D5B00005D0053544F50204E24
:103670004F5700004C73646A20536C617665205389
:10368000796E6320200053544F50202020202020AA
:103690000000E9CFD9FF0A6EDCCFE1FFDCCFE2FF0B
:1036A000DC52DCCF03F0DCCF04F0E6CF06F0E6CF4F
:1036B00007F010EE06F00A50DCEC16F0E9CFD9FF67
:1036C000DCCFE1FFDCCFE2FF06C0E6FF07C0E6FF8C
:1036D0001200D9CFEDFFE9CFD9FF000E88EC16F02C
:1036E000000EED6E360EED6E6A0EBBEC1BF0020E98
:1036F000E9260001876B0001896B00018A6B0001DC
:103700008B6B8090808280948096ECCFD9FF1200E2
:10371000D9CFEDFFE9CFD9FF270EED6E100EED6E7C
:10372000000E6DEC1CF0020EE926070EC16ED00EE5
:103730009216F80E96168090808280948096809AD9
:10374000849084928494ECCFD9FF1200D9CFEDFFFE
:10375000E9CFD9FF82EC16F0000E88EC16F0000ECF
:10376000ED6E360EED6E740EBBEC1BF0020EE9260C
:10377000ECCFD9FF1200F66EE9CFD9FFDCCFF7FF0F
:10378000DCCFF8FF0900F55003E094EC16F0FAD70F
:103790001200F66EE9CFD9FFDCCFF7FFDCCFF8FFE0
:1037A000DCCFE1FFDCCFE2FFB4EF16F0F66EE9CF3D
:1037B000D9FFDCCFF7FFDCCFF8FFDCCFE1FFDCCFB8
:1037C000E2FFB6EF16F0036EE9CFD9FFDCCF04F0CD
:1037D000DCCFE1FFDCCFE2FFF2EF16F0036EE9CFC2
:1037E000D9FFDCCF04F0DCCFE1FFDCCFE2FF18EF44
:1037F00017F0E9CFD9FFDCCFF8FFDCCFF7FFDCCF44
:10380000F6FF9CEF16F0E9CFD9FF036EDCCF04F092
:10381000DCCF05F0DC50A8EF16F0E9CFD9FFDCCF04
:10382000F6FFDCCFF7FFDCCFF8FFE4EF16F0F66E23
:10383000E9CFD9FFDCCFF7FFDCCFF8FF9AEF16F026
:10384000F66EE9CFD9FFDCCFF7FFDCCFF8FF9EEFB4
:1038500016F0F66EE9CFD9FFDCCFF7FFDCCFF8FF2B
:10386000E6EF16F0F66EE9CFD9FFDCCFF7FFDCCF3D
:10387000F8FFAAEF16F0A96EE9CFD9FFDCCFE1FF80
:10388000DCCFE2FF1AEF17F0A96EE9CFD9FFDCCF4A
:10389000E1FFDCCFE2FF1CEF17F0E9CFD9FFDCCF6F
:1038A00003F0DCCF04F052EF16F0E9CFD9FFDCCF04
:1038B00003F0DCCF04F074EF16F0E9CFD9FFDCCFD2
:1038C00003F0DCCF04F0A4EF16F0036EE9CFD9FFCC
:1038D000DCCF04F0DC50BAEF16F0E9CFD9FFDCCF33
:1038E00003F0DCCF04F0BCEF16F0E9CFD9FFDCCF5A
:1038F00003F0DCCF04F01EEF17F0036EE9CFD9FF21
:10390000DCCF04F0B8EF16F0D9CFEDFFE9CFD9FF47
:10391000ECCFD9FF1200D9CFEDFFE9CFD9FFECCF23
:10392000D9FF1200D9CFEDFFE9CFD9FFECCFD9FFF6
:103930001200D9CFEDFFE9CFD9FFECCFD9FF1200AC
:10394000D9CFEDFFE9CFD9FFECCFD9FF1200D9CF06
:10395000EDFFE9CFD9FFECCFD9FF1200D9CFEDFFB2
:10396000E9CFD9FFECCFD9FF1200D9CFEDFFE9CFD6
:10397000D9FFECCFD9FF1200D9CFEDFFE9CFD9FFA6
:10398000ECCFD9FF1200D9CFEDFFE9CFD9FFECCFB3
:10399000D9FF12000100243A000080000000070057
:1039A0000000E9CFD9FFDCCF03F060EF16F0E9CFDC
:1039B000D9FFDCCF03F068EF16F0E9CFD9FFDCCFF9
:1039C00003F06AEF16F0E9CFD9FFDCCF03F06EEF1A
:1039D00016F0E9CFD9FFDCCF03F072EF16F0E9CF94
:1039E000D9FFDCCF03F0F6EF16F0E9CFD9FFDCCF3B
:1039F00003F0F8EF16F0E9CFD9FFDCCF03F0AEEF1C
:103A000016F0A96EE9CFD9FFDC50B2EF16F0E9CF7E
:103A1000D9FFDCCF03F0F4EF16F03AEC16F004C057
:103A2000F3FF12000000000000000000A96EB0EFDC
:063A300016F0A6EF16F0EF
:00000001FF
